:020000040000FA
:1000000080313228080008007E1480312700131C3C
:100010000A280B282328111C0E280F2823289301B7
:100020000530F3000F30F200F130890B1528F20B88
:100030001528F30B152800000130F200720821008A
:10004000EF00270093012100111C272828283028C1
:100050002000111C2C282D2830288C31E8248031D8
:100060007E10090080313428F601F701F801F9010A
:10007000E73084000030850009308C313E24803127
:10008000CA308400013085001A308C313E24803122
:10009000203084000230850048308C313E2480318D
:1000A000A03084000230850050308C313E248031F5
:1000B00020308400033085002A308C313E2480318A
:1000C0007E102000803164288731BF2780318C3139
:1000D000812480318C312F2480312100ED01EE010B
:1000E000EB01EC012300D801D9012100E901EA016B
:1000F000E701E8011430F4000030F5008D310725E8
:10010000803120000D128731F3278031003020002C
:10011000A2009030A3001830A4000030A500803168
:100120000220803121001D148B152700111440304E
:100130002300D4000030D50021009D149D149D188B
:10014000A228A3289F281C082300C90021001B08FF
:100150002300C8005608013E2100B60000302300ED
:10016000573D2100B7003708803AB80023004908FE
:10017000803A21003802031DC128230048082100CD
:100180003602031CC428C528E02823005608FF3E79
:100190002100B600FF302300573D2100B7002300A7
:1001A0004908803A2100B8003708803A3802031D18
:1001B000DC283608230048020318DF28E028172926
:1001C000CF3086000030870014302100B6000030A8
:1001D0001E00B60BE828CF30A0000030A10081300F
:1001E000A2009030A300230049082100A5002300AD
:1001F00048082100A4008D3155258031CF302000E2
:10020000A2000030A300CF30F4000030F5008C31A4
:10021000B124803175082000A5007408A400803145
:100220000220803123004908D7004808D600210069
:100230006F0803191C291D29D92920308600013097
:1002400087001430B60000301E00B60B24292200AF
:100250000D0E01392100B6000130B606B60E22009F
:100260000D0821003606EF39360622008D002000E9
:100270000D1E3B293C297D290D172100EB01EC01C6
:100280002300D801D9012100ED01EE01E901EA01C5
:10029000E701E80140302300D4000030D5008C3164
:1002A00054248031B9308600003087001630210098
:1002B000B60000301E00B60B5A29B930A00000303D
:1002C000A1001930A2009030A3008D315525803156
:1002D000B9302000A2000030A300B930F400003093
:1002E000F5008C31B124803175082000A500740818
:1002F000A400803102208031B7298C312F24803135
:100300002100EB01EC012300D801D9012100ED010E
:10031000EE01E901EA0120000D13343086000130BE
:10032000870014302100B60000301E00B60B95295E
:100330003430A0000130A1007630A2009030A3003C
:100340008D315525803134302000A2000130A300CA
:100350003430F4000130F5008C31B124803175085F
:100360002000A5007408A4008031022080312030D4
:100370002100A0000130A1002E30A2009030A30087
:100380008D315525803120302000A2000130A3009E
:100390002030F4000130F5008C31B1248031750833
:1003A0002000A5007408A4008031022080312100C3
:1003B000EF016D036E04031DDE29DF29232A6B087C
:1003C0006C04031DE429E529232A8C312F24803174
:1003D00020000E150630F4000030F5008D310725A1
:1003E000803120000E1101302100EB000030EC00C4
:1003F000ED01EE0148308600013087001430B60070
:1004000000301E00B60B012A4830A0000130A100C8
:100410005130A2009030A3008D31552580314830F5
:100420002000A2000130A3004830F4000130F500A4
:100430008C31B124803175082000A5007408A40017
:1004400080310220803121006B036C04031D292AB6
:100450002A2ACC2A6D086E04031D2F2A302ACC2AA2
:1004600069086A04031D352A362ACC2A8731F32706
:100470008031230057082100B700230056082100CF
:10048000B600B635B70DB635B70D36082E3E20008E
:10049000C20003302100373D2000C3008F316127A7
:1004A000803120003908C5003808C4008D31FD2591
:1004B0008031200043082100E6002000420821008E
:1004C000E5001B302000A0000030A10021006608DC
:1004D0002000A300210065082000A2008F31012721
:1004E0008031200020082100B600200021082100D2
:1004F000B700B635B70DB635B70D3608E300370887
:10050000E4005C308600013087001430B600003013
:100510001E00B60B882A5C30A0000130A1004030DC
:10052000A2009030A3006408A5006308A400660838
:10053000A7006508A6008D31552580315C3020006C
:10054000A2000130A3005C30F4000130F5008C31D2
:10055000B124803175082000A5007408A400803102
:1005600002208031210066082300D50021006508A3
:100570002300D4002100ED01EE018C3154248031A0
:100580002300D801D90101302100EB000030EC003C
:100590000130E9000030EA0069036A04031DD12A32
:1005A000D22A2C2B6D036E04031DD72AD82A2C2B9C
:1005B00067086804031DDD2ADE2A2C2B20000E1597
:1005C0000630F4000030F5008D3107258031200021
:1005D0000E11A03086000130870014302100B600D3
:1005E00000301E00B60BF12AA030A0000130A1009F
:1005F0005E30A2009030A3008D3155258031A030AF
:100600002000A2000130A300A030F4000130F5006A
:100610008C31B124803175082000A5007408A40035
:100620008031022080311B302300D4000030D500FF
:100630002100ED01EE018C31542480310130230082
:10064000D8000030D90001302100EB000030EC0070
:100650000130E7000030E80067036804031D312B18
:10066000322B9C286D036E04031D372B382B9C28DE
:100670008C312F2480312100ED01EE014030230028
:10068000D4000030D500B43086000130870014302B
:100690002100B60000301E00B60B4B2BB430A0007A
:1006A0000130A1006A30A2009030A3008D315525A1
:1006B0008031B4302000A2000130A300B430F40037
:1006C0000130F5008C31B124803175082000A5007F
:1006D0007408A40080310220803120000E150630FD
:1006E000F4000030F5008D310725803120000E1117
:1006F0000D132100EB01EC012300D801D9012100E9
:10070000ED01EE01E901EA01E701E80120000D1227
:100710009C28803132282000C5003A08CE003B08D2
:10072000CF003C08D0003D08D1003E08D2003F0871
:10073000D3004008D4004108D5004E308600003078
:100740008700473FC200C21BA62BA82B0130A92B54
:1007500000302000C300C4014308CC004408CD0091
:100760004C084D040319B52BB62BD42BCE09CF0959
:10077000D009D109D209D309D409D509CE0A031D5C
:10078000D42BCF0A031DD42BD00A031DD42BD10A9E
:10079000031DD42BD20A031DD42BD30A031DD42B43
:1007A000D40A031DD42BD50A2300CF1BD82BD92B59
:1007B000DD2BFD30F605FF30F7054F08803A2000AD
:1007C000C20080304202031DE82B013023004E029C
:1007D0000318EB2BEC2BF22B01302000C80000306B
:1007E000C900FA2B23004F082000C90023004E083F
:1007F0002000C80023004D082000CB0023004C0837
:100800002000CA004C084D04031D072C082C0C2C9A
:10081000761D0B2C0C2C102CFF30CA07FF30CB3D63
:100820001F30D6000030D7002400E701802CFF30B5
:100830002000D607FF30D73D0A30A000A101A20159
:10084000A301A401A501A601A7014E08A8004F0815
:10085000A9005008AA005108AB005208AC00530888
:10086000AD005408AE005508AF008531F82583313E
:1008700020002108B3002008B2008C31CC24833141
:1008800020003208303EC2005608483E8600023042
:10089000870042088100FF30C807FF30C93DFF30A4
:1008A000CA07FF30CB3D0A30A000A101A201A3017D
:1008B000A401A501A601A7014E08A8004F08A900A0
:1008C0005008AA005108AB005208AC005308AD0014
:1008D0005408AE005508AF008431F4248331200061
:1008E0002008CE002108CF002208D0002308D10024
:1008F0002408D2002508D3002608D4002708D500F4
:1009000020005708803AC20080304202031D8A2C22
:1009100001305602031C8D2C8E2CBA2C20004E0860
:100920004F04500451045204530454045504031D4D
:100930009A2C9B2C172C4908803AC2008030420226
:10094000031DA42C013048020318A72CA82C172C37
:1009500020004B08803AC20080304202031DB22CB6
:1009600001304A02031CB52CB62CBA2CF618B92C4F
:10097000BA2C172C20004C084D04031DC02CC12C90
:10098000C52C761DC42CC52CE12CFF30D607FF30BA
:10099000D73D4C084D04031DCE2CCF2CD42C2B302E
:1009A000C6000030C700D82C2D30C6000030C7006C
:1009B0004608C2005608483E8600023087004208BA
:1009C00081005608483EC2004208AF004B08B10003
:1009D0004A08B00045088E31A8268331200030082F
:1009E000BB002F08BA0008002000B10120308600AB
:1009F00000308700473FF400F41FFF2C002D222D0C
:100A00002000A009A109A209A309A409A509A60912
:100A1000A709A00A031D1F2DA10A031D1F2DA20A4D
:100A2000031D1F2DA30A031D1F2DA40A031D1F2D27
:100A3000A50A031D1F2DA60A031D1F2DA70A2000AE
:100A4000B101B10A2830860000308700473FF4002A
:100A5000F41F2B2D2C2D502D2000A809A909AA091F
:100A6000AB09AC09AD09AE09AF09A80A031D4B2DAE
:100A7000A90A031D4B2DAA0A031D4B2DAB0A031D0A
:100A80004B2DAC0A031D4B2DAD0A031D4B2DAE0A99
:100A9000031D4B2DAF0A0130F40074082000B1068D
:100AA00032308600003087000830F40000301E002D
:100AB000F40B572D200020082104220423042404D1
:100AC0002504260427040319662D672DC32DB001C4
:100AD000B00A762DA035A10DA20DA30DA40DA50D74
:100AE000A60DA70D0130F4007408B007A71F792DDB
:100AF0007A2D6A2DB235B30DB40DB50DB60DB70D07
:100B0000B80DB90D27082F02031DA02D26082E02AF
:100B1000031DA02D25082D02031DA02D24082C0245
:100B2000031DA02D23082B02031DA02D22082A023D
:100B3000031DA02D21082902031DA02D2008280235
:100B4000031CA32DA42DB52D2008A8022108A93B24
:100B50002208AA3B2308AB3B2408AC3B2508AD3B4D
:100B60002608AE3B2708AF3B3214A736A60CA50CCF
:100B7000A40CA30CA20CA10CA00C0130B002031D0C
:100B8000C22DC32D7A2D31080319C72DC82DE62D8E
:100B9000B209B309B409B509B609B709B809B90961
:100BA000B20A031DE62DB30A031DE62DB40A031D88
:100BB000E62DB50A031DE62DB60A031DE62DB70A7C
:100BC000031DE62DB80A031DE62DB90A20003208E0
:100BD000A0003308A1003408A2003508A30036089D
:100BE000A4003708A5003808A6003908A7000800A7
:100BF0002000B1012830860000308700473FF40014
:100C0000F41F032E042E262E2000A809A909AA09E4
:100C1000AB09AC09AD09AE09AF09A80A031D232E23
:100C2000A90A031D232EAA0A031D232EAB0A031DA6
:100C3000232EAC0A031D232EAD0A031D232EAE0A5C
:100C4000031D232EAF0A2000B101B10A2030860017
:100C500000308700473FF400F41F2F2E302E4F2E18
:100C60002000A009A109A209A309A409A509A609B0
:100C7000A709A00A031D4F2EA10A031D4F2EA20A89
:100C8000031D4F2EA30A031D4F2EA40A031D4F2E32
:100C9000A50A031D4F2EA60A031D4F2EA70A2000EA
:100CA0002008210422042304240425042604270404
:100CB00003195B2E5C2EAF2EB001B00A6B2EA0354F
:100CC000A10DA20DA30DA40DA50DA60DA70D01301C
:100CD000F4007408B007A71F6E2E6F2E5F2E270832
:100CE0002F02031D8D2E26082E02031D8D2E250892
:100CF0002D02031D8D2E24082C02031D8D2E23088A
:100D00002B02031D8D2E22082A02031D8D2E210881
:100D10002902031D8D2E20082802031C902E912EDF
:100D2000A12E2008A8022108A93B2208AA3B2308DB
:100D3000AB3B2408AC3B2508AD3B2608AE3B27085F
:100D4000AF3BA736A60CA50CA40CA30CA20CA10CBF
:100D5000A00C0130B002031DAE2EAF2E6F2E310855
:100D60000319B32EB42ED22EA809A909AA09AB09DA
:100D7000AC09AD09AE09AF09A80A031DD22EA90A14
:100D8000031DD22EAA0A031DD22EAB0A031DD22E9A
:100D9000AC0A031DD22EAD0A031DD22EAE0A031DCE
:100DA000D22EAF0A20002808A0002908A1002A0896
:100DB000A2002B08A3002C08A4002D08A5002E08D3
:100DC000A6002F08A70008002000E70058088600AA
:100DD0008701403FDA00413FDB005A0884005B088E
:100DE00085001200253A031DF62EF72E9B2F58087A
:100DF000860087010130810741310318810A2300F1
:100E0000CC01CD01F601F701FF30CE00FF30CF005D
:100E10002000580886008701403FDA00413FDB0090
:100E20005A0884005B0885001200643A0319192FE0
:100E30001A2F2B2F580886008701403FDA00413FC8
:100E4000DB005A0884005B0885001200693A031D24
:100E50002A2F2B2F662F5808860087010130810723
:100E600041310318810A590886008701010884006E
:100E7000850102308107003FDA00013FDB005A089C
:100E8000DF005B08E000890D893B8909E100E20091
:100E9000E300E400E500E6005F08BA006008BB007C
:100EA0006108BC006208BD006308BE006408BF00A2
:100EB0006508C0006608C100670883318B2386314E
:100EC00020003B08D9003A08D800BE2F58088600F9
:100ED0008701403FDA00413FDB005A0884005B088D
:100EE00085001200253A031D762F772F902F580882
:100EF000860087010130810741310318810A2530BE
:100F0000A0000030A1006708DA005A08A2008E3164
:100F10005126863101302000D8000030D900BE2F84
:100F20005808860087010130810741310318810A82
:100F3000D801D901BE2F580886008701403FDA004A
:100F4000413FDB005A0884005B0885000008DC0094
:100F5000DD015C08A0005D08A1006708DE005E08F6
:100F6000A2008E3151268631200058088600870164
:100F70000130810741310318810A8A2F08003C3073
:100F8000210099041908FC39023899008E122300B7
:100F90000E138E1321000E178E1723000E110D1243
:100FA00021000E1120000E1121000D120B178B17BE
:100FB0002200971321000D1220000D120C102100A9
:100FC000EF010C1623000C1621009E1770309E04B2
:100FD000FC309E051D0883390C389D0020000D1340
:100FE00021000D13080022308C3197248731200016
:100FF0002308F5002208F4008C316C2487310800A6
:10185E0020001810080001302100ED000030EE00CD
:10186E00080075082300DB007408DA000800640025
:10187E0080010131890B3F2C0034200018107108B3
:10188E0097007008960018140800200018107508AC
:10189E00970074089600181408007908F500780867
:1018AE00F4008C314C248C312300D001D10108007E
:1018BE0023005A085B040319652C662C6B2C5B08FD
:1018CE008A005A080A008C3108007408FF3E200076
:1018DE00A000FF30753DA10020082300DC00200091
:1018EE0021082300DD00DE01DF01E001E101E2015C
:1018FE00E3010800200099019701960111101708C5
:10190E00F9001608F800210011143230F4000C30E2
:10191E00F5008C3138248C313530200098000800C9
:10192E00F400740803199C2C9D2CB02C74088600AE
:10193E008701FF30C03FFF30C13FFF30C23FFF3055
:10194E00C33FFF30C43FFF30C53FFF30C63FFF30BF
:10195E00C73F080075082000A1007408A000BB2C2A
:10196E000130F4070030F53D7408860075088700D5
:10197E000108031DC32CC42CB72C200020087402B0
:10198E00F4002108753BF500080020003308803A6A
:10199E00B40080303402031DD62C013032020318FD
:1019AE00D92CDA2CE72C20003209B4003309B5000B
:1019BE00B40A0319B50A3408B2003508B300E72C8F
:1019CE000800200011107908F1007808F0008C3121
:1019DE0044248C3101302300D0070030D13D55080E
:1019EE005102031DFC2C54085002031CFF2C002D29
:1019FE00062D8C315F248C312300D001D1010800DB
:101A0E002000A201A3011D2D02302000A1000430F0
:101A1E00A000BA30890B112DA00B112DA10B112D89
:101A2E00000001302000A2070030A33D2308803AB9
:101A3E00A0007508803A2002031D272D740822028B
:101A4E00031C2A2D2B2D0B2D08002000AE00AC01FF
:101A5E00AD01442D2B08A800A9012808A0002908D3
:101A6E00A1007408AA002A08A2008E3151268D31D9
:101A7E0001302000AC070030AD3D2C082E07A80029
:101A8E0028088600023087000108A9002908AB004B
:101A9E002B08031D532D542D312D0800A430210089
:101AAE00A8002808AB002108AD002008AC00AE014C
:101ABE00AF01B001B10123082000E9002100220886
:101ACE002000E800AB302100A80028082000EA0022
:101ADE00AC308D3180258D310230AC3E86008701D1
:101AEE00403F210020078400413F213D85008001B9
:101AFE0008002000ED006908EF006808EE002300E2
:101B0E00CA01CB019E2D6E30EB006B08D8006A081F
:101B1E00EC006C08D9006D088631E4268D3120006A
:101B2E0058082300CA07200059082300CB3D200087
:101B3E006E0884006F0885001200031DA72DA82DC6
:101B4E008A2D23004B082000E90023004A082000BC
:101B5E00E800080030308600003087000830F400BE
:101B6E0000301E00F40BB82D2000201CBF2DC02D00
:101B7E00D02D2808B0072908B13D2A08B23D2B0800
:101B8E00B33D2C08B43D2D08B53D2E08B63D2F08AB
:101B9E00B73DA835A90DAA0DAB0DAC0DAD0DAE0D13
:101BAE00AF0DA736A60CA50CA40CA30CA20CA10C71
:101BBE00A00C200821042204230424042504260456
:101BCE002704031DEB2DEC2DBB2D3008A000310892
:101BDE00A1003208A2003308A3003408A40035087F
:101BEE00A5003608A6003708A70008002000C70188
:101BFE00C51F022E032E0A2EC409C509C40A0319D5
:101C0E00C50AC701C70AC31F0D2E0E2E132EC209F9
:101C1E00C309C20A0319C30A420843040319182E42
:101C2E00192E422EC601C60A252E0130C235C30D0D
:101C3E00890B1D2E0130F5007508C607C31F282E0F
:101C4E00292E1C2E43084502031D2F2E4208440246
:101C5E00031C322E332E372E4208C4024308C53BD6
:101C6E000130C336C20C890B382E0130C602031D5B
:101C7E00412E422E292E47080319462E472E4C2E52
:101C8E00C409C509C40A0319C50A4508C300440896
:101C9E00C2000800200022080319562E572E5C2E73
:101CAE002208031D5B2E5C2E612E2008803103203E
:101CBE008E31A72E2208043E8600870116000104ED
:101CCE0003196A2E6B2E892E2208043E8600870188
:101CDE00403FA300413FA4002208023E8600870138
:101CEE00403FA500413FA6002608803AA7002408E1
:101CFE00803A2702031D852E230825020318882EFD
:101D0E00892EA72E20002208023E86008701220877
:101D1E0084008501403F0007A3000131413F003D93
:101D2E00A4002308860024088700200881002208CA
:101D3E00023E860087010130810741310318810A76
:101D4E0008002000B700761CAD2EAE2EB62E37083A
:101D5E00B2003208F4002F088D312C258E31200070
:101D6E00B11BBA2EBB2EC02E3108B6003008B500FE
:101D7E00C22EB501B601B301B401D62E203020001B
:101D8E00A0000030A1003708B2003208A2008E3148
:101D9E0051268E3101302000B3070030B43D340897
:101DAE00803AB2003608803A3202031DE02E350822
:101DBE003302031CE32EE42EC52E7618E72EE82EF2
:101DCE00F12E20003708B2003208F4002F088D31B2
:101DDE002C258E3120002F08F4000230F5008C31B6
:101DEE00B1248E31200035087407AF003608753DDA
:101DFE00B00008002000A501A11F062F072F0E2FEF
:101E0E00A009A109A00A0319A10AA501A50AA31FE9
:101E1E00112F122F1B2FA209A309A20A0319A30A1D
:101E2E000130F4007408A506A601A70120082104BC
:101E3E000319222F232F522FA401A40A2F2F013072
:101E4E00A035A10D890B272F0130F4007408A407CB
:101E5E00A11F322F332F262F0130A635A70D890B48
:101E6E00342F21082302031D3E2F20082202031CBB
:101E7E00412F422F472F2008A2022108A33B2614F0
:101E8E000130A136A00C890B482F0130A402031D8E
:101E9E00512F522F332F25080319562F572F5C2FF2
:101EAE00A609A709A60A0319A70A2708A10026084A
:101EBE00A000080001302000BA000030BB00003046
:101ECE00BC000030BD000030BE000030BF0000304E
:101EDE00C0000030C10023005C082000A0002300D9
:101EEE005D082000A10023005E082000A200230050
:101EFE005F082000A300230060082000A400230038
:101F0E0061082000A500230062082000A60023001F
:101F1E0063082000A7005830AF005130AE00F430F7
:101F2E00AD002D30AC004C30AB009530AA007F30A8
:101F3E00A9002D30A8008D31B1258F312000203021
:101F4E00860000308700403FBA07413FBB3D423F0D
:101F5E00BC3D433FBD3D443FBE3D453FBF3D463F7B
:101F6E00C03D473FC13D41082300E300200040082B
:101F7E002300E20020003F082300E10020003E087D
:101F8E002300E00020003D082300DF0020003C0875
:101F9E002300DE0020003B082300DD0020003A086D
:101FAE002300DC00DC30860001308700403F20003B
:101FBE00BA00413FBB00423FBC00433FBD00443F1F
:101FCE00BE00453FBF00463FC000473FC100313015
:101FDE002000C136C00CBF0CBE0CBD0CBC0CBB0C23
:101FEE00BA0C890BEF2F20003B08B9003A08B80055
:101FFE0008005A3479346C346F347034663461347A
:10200E00203446346F346F347A34623461346C3435
:10201E006C342034543469346D34653472340D3478
:10202E000A3400344D345034333420344F344E346B
:10203E0020347234733474342E342034743469344E
:10204E006D346534723421340D340A340034423424
:10205E005534543454344F344E3420345034523476
:10206E004534533453344534443421340D340A3416
:10207E00003453344534433453343A342034253405
:10208E0064342C34203425346434203421340D341B
:10209E000A34003449344E34543452344F342034DC
:1020AE00463449344E3421340D340A340034483425
:1020BE004F3452344E34203449344E344934213462
:1020CE000D340A34003448344F3452344E342034F4
:1020DE00463449344E3421340D340A3400344D34F0
:1020EE005034333420344F344634463421340D3496
:0E20FE000A340034253464340D340A340034BE
:020000040001F9
:04000E0084CFEFD9D3
:00000001FF
